:020000040800F2
:10000000081D00209D0100080D1800087F1500083C
:1000100009180008130B000803290008000000005D
:100020000000000000000000000000000D1A0008A1
:10003000C913000800000000C5180008C91B00080B
:10004000B7010008B7010008B7010008B7010008B0
:10005000B7010008B7010008B7010008B7010008A0
:10006000B7010008B7010008B7010008B701000890
:10007000B7010008B7010008B7010008B701000880
:10008000B70100088D0D0008B1090008B70100088C
:10009000B7010008B7010008B7010008B701000860
:1000A000B7010008B7010008B7010008B701000850
:1000B000B7010008B7010008B7010008B701000840
:1000C000B7010008B7010008B7010008B701000830
:1000D000B7010008AD23000865260008B701000835
:1000E000B7010008B7010008B7010008B701000810
:1000F000B7010008B7010008B7010008B701000800
:10010000B7010008B7010008B7010008B7010008EF
:10011000B70100085D220008391C0008CD1C00084A
:10012000C90D0008B7010008010E0008210E0008E3
:10013000410E00080000000000000000B7010008A8
:10014000B7010008B7010008B7010008B7010008AF
:10015000B7010008B7010008610E0008B7010008E8
:10016000B7010008B7010008B7010008B70100088F
:10017000B7010008B70100080000000000000000FF
:10018000B7010008B7010008DFF80CD000F048FA0A
:1001900000480047FD400008081D00200648804731
:1001A00006480047FEE7FEE7FEE7FEE7FEE7FEE75C
:1001B000FEE7FEE7FEE7FEE7D11B00088901000825
:1001C00040EA01039B0703D009E008C9121F08C0D9
:1001D000042AFAD203E011F8013B00F8013B521E59
:1001E000F9D27047D2B201E000F8012B491EFBD2D0
:1001F00070470022F6E710B513460A460446194632
:10020000FFF7F0FF204610BD30B50446002003463E
:1002100000E05B1C934203D2E05CCD5C401BF8D055
:1002200030BD30B50B46014600202022012409E0F4
:1002300021FA02F59D4205D303FA02F5491B04FA9F
:1002400002F52844151EA2F10102F1DC30BD2DE9B2
:10025000F05F0546002092469B468846064681464A
:1002600040241BE0284641464746224600F0F9F963
:1002700053465A46C01A914110D311461846224699
:1002800000F0E0F92D1A67EB01084F4622460120E5
:10029000002100F0D7F917EB00094E41201EA4F110
:1002A0000104DFDC484631462A464346BDE8F09F5C
:1002B0002DE9FE4F804681EA0300C00F0C460090F6
:1002C00021F0004123F00045B8EB0200A94105D21E
:1002D0004046214690461C460B46024623F000400D
:1002E000104347D0270DC7F30A00C3F30A51029009
:1002F000401A019040286BDAC3F3130040F4801BCE
:100300000098924620B10023D2EB030A63EB0B0B5B
:1003100001985946C0F14002504600F093F9064654
:100320000D4650465946019A00F0ABF910EB080013
:100330006141002487EA115284EAE7731A4340D0EE
:10034000009A62B3019A012A4FEA075215DC001B9A
:1003500061EB02014FF0004202EA0752CDE9004290
:10036000001C41F5801132462B4600F0ABF903B07A
:10037000BDE8F08F40462146F9E7001B61EB020122
:10038000001C41F5801300185B412018A2F50017EE
:1003900047EB030140EAD570B6196D4111E06D08D5
:1003A0004FEA360645EAC0754FEA0752001B61EB7B
:1003B0000201001C41F5801149084FEA3000001984
:1003C000514132462B4603B0BDE8F04F00F06BB907
:1003D0000098012240000023D0EB020263EBE0739F
:1003E000009821464FEAE074B8EB000061EB04018D
:1003F000E9E783F000435BE781F0004158E72DE92E
:10040000FE4F81EA030404F0004421F0004100940F
:100410004FF0000B23F0004350EA01045ED052EA93
:1004200003045BD0C3F30A54C1F30A552C44A4F26D
:10043000F3340194A0FB0254C1F3130141F4801181
:10044000C3F3130343F4801301FB024400FB034E88
:10045000840A970A44EA815447EA8357A4FB076851
:1004600002958D0A05FB07854FEA932C04FB0C547B
:100470002705029D4FEA065847EA1637B5EB0805EF
:100480006EEB070C870E920E47EA811742EA831241
:10049000A7FB0201B6EB0B0164EB00042B0D43EA52
:1004A0000C335E1844EB1C50DA465146E7FB020160
:1004B000C5F313044FEA0B3343EA14534FEA0432F3
:1004C000019C43EA0603A4F10C040294009CCDE9CC
:1004D00000B400F0F7F803B0BDE8F08F002001464B
:1004E000F9E72DE9F04D81EA030404F0004B21F017
:1004F000004514464FF0000A23F0004150EA05027F
:1005000020D054EA01021DD0C5F30A570246C5F3B4
:100510001303C1F31300C1F30A5640F4801543F4EA
:100520008013A7EB0608101BD64608F2FD3873EBC4
:10053000050002D308F1010801E092185B41B8F10F
:10054000000F03DA00200146BDE8F08D00204FF4D3
:100550008011064684460EE0171B73EB050705D392
:10056000121B63EB050306434CEA010C49084FEAF2
:10057000300092185B4150EA0107EDD152EA0300C6
:1005800012D082EA040083EA0501084305D0101B5B
:10059000AB4106D20122002306E000224FF00043C7
:1005A00002E06FF0010253101AEB06004CEB085109
:1005B00010EB0A0041EB0B01BDE8F04D00F073B801
:1005C000C1F30A52C1F3130140F2FF3341F4801129
:1005D0009A4202DA00200146704740F233439A42C1
:1005E000A2F2334202DC524200F03BB800F02AB8DB
:1005F00030B5041E71F1000404DB4FF000444042AA
:1006000064EB0101141E73F1000405DB1C464FF07E
:100610000043524263EB0403994208BF904230BD4D
:10062000064C074D06E0E06840F0010394E807003F
:1006300098471034AC42F6D3FFF7AAFDF0670008E4
:1006400010680008202A04DB203A00FA02F100209A
:1006500070479140C2F1200320FA03F31943904000
:100660007047202A04DB203A21FA02F0002170476B
:1006700021FA02F3D040C2F120029140084319460A
:100680007047202A06DBCB17203A41FA02F043EAF2
:10069000E07306E041FA02F3D040C2F1200291403B
:1006A00008431946704710B5141E73F1000408DAA8
:1006B000401C41F1000192185B411A4301D120F026
:1006C000010010BD2DE9F04D92469B4611B1B1FAE3
:1006D00081F202E0B0FA80F220329046FFF7B2FFDA
:1006E00004460F4640EA0A0041EA0B0153465A46C7
:1006F000084313D0114653EA010019D0C8F1400253
:100700005046FFF7AEFF05460E4650465946424654
:10071000FFF798FF084305D0012004E02046394642
:10072000BDE8F08D0020054346EAE0762C433743D0
:100730000A986305E40AA0EB08000022FD0A44EAD7
:1007400047540A3002D500200146E9E70105101997
:100750006941DDE9084500196941BDE8F04DA2E7AE
:1007600000220A12D3430360704721B1826842F02D
:100770000102826003E0826822F001028260704719
:100780000021084A1168084A1140D0E900231A43A1
:1007900083681A43C3681A431143044AC2F8041316
:1007A0007047000004230140E030FCFF00200140BE
:1007B00000B59DB00121042001F086F820201B9097
:1007C00003208DF8700000208DF873001BA94C48A1
:1007D00000F062FE0121080201F096F8012188056F
:1007E00001F072F8002017904FF48030189000202C
:1007F00019901A9017A8FFF7C3FF002011908DF8E9
:10080000480001208DF84900002013901590012028
:100810008DF8580011A93B4800F0F0F8032301229D
:100820000F21384800F014F90020029035484C3070
:100830000390354804900020059001200690002088
:10084000079008904FF48050099080000A90801122
:100850000B9000200C900D9002A92C4800F03CFC5D
:1008600001221021294800F019FC012240F2052143
:10087000244800F0B3F838208DF8040002208DF8E9
:10088000050000208DF8060001208DF8070001A862
:1008900000F0BEFF12208DF8040002208DF8050044
:1008A00001208DF806008DF8070001A800F0B0FFC8
:1008B0000121164800F0FEFA0121124800F034F838
:1008C0001048806840F400700E49886001210D488E
:1008D000FFF74BFF0B48806840F080400949886073
:1008E00000BF0848806800F080400028F9D1054822
:1008F00000F00AF906A001F0C1F81DB000BD00002B
:10090000000802400020014058000020106402400E
:1009100041444320444D4120696E697469616C69AA
:100920007A65640D0A00000021B1826842F4807289
:10093000826003E0826822F4807282607047000067
:10094000B2EE060AB0EE401A9FED0C0AF0EE401A25
:100950000B48006800EE100AB8EE400A9FED072A27
:1009600020EE020A9FED072AC0EE022AF0EE620A8C
:10097000B2EE060A20EE800A70470000333353407F
:10098000580000200000804570B50246002000237A
:1009900000240B12556801268E4005EA06041568EE
:1009A0001D4015B10CB1012000E0002070BD000019
:1009B00010B540F205210748FFF7E6FF48B140F2C5
:1009C00005210448FFF7CCFE03480068401C02499B
:1009D000086010BD002001406400002010B50B46E7
:1009E0000021D9B2012404FA01F11AB144680C4380
:1009F000446002E044688C43446010BD30B5024658
:100A0000002000235068104C20400D790C6844EA07
:100A100005242043506090680C4C2040D1E90354D9
:100A20002C438D682C434D7944EA45042043906063
:100A3000D06A20F470000C7D641EE4B2234340EAC7
:100A40000350D06230BD0000FFFEFFFCFDF7FFC089
:100A5000F0B504460D4600200021092D11DDE068A7
:100A6000A5F10A0606EB4607072606FA07F18843B2
:100A7000A5F10A0606EB460603FA06F10843E06014
:100A80000CE0206905EB4507072606FA07F18843C5
:100A900005EB450603FA06F108432061072A0FDA41
:100AA000606B561E06EB86071F2606FA07F1884381
:100AB000561E06EB860605FA06F10843606322E03F
:100AC0000D2A0FDA206BD61F06EB86071F2606FAC3
:100AD00007F18843D61F06EB860605FA06F10843A0
:100AE000206310E0E06AA2F10D0606EB86071F26E0
:100AF00006FA07F18843A2F10D0606EB860605FA11
:100B000006F10843E062F0BD816841F080418160F8
:100B1000704700BFFEE703468B4203DB934201DCD4
:100B2000012070470020FCE710B53948007865289F
:100B300026D00CDC552834D004DC43284CD0522875
:100B40005FD137E061280BD063285AD14DE0682887
:100B500054D06D280CD0722835D0752851D117E0AB
:100B600002F0B2FB044614B12AA000F00BFD49E0EC
:100B700002F0D2FB044614B12CA000F003FD41E0CA
:100B800002F0F2FB044614B128A000F0FBFC39E0AF
:100B9000062002F001FB044614B12AA000F0F2FC8A
:100BA00030E0002002F0F8FA044614B125A000F06D
:100BB000E9FC27E0062002F055FB044614B127A00B
:100BC00000F0E0FC1EE0032002F04CFB044614B1F0
:100BD00022A000F0D7FC15E01E2002F00FFB044617
:100BE00014B123A000F0CEFC0CE0022002F006FBC2
:100BF000044614B11EA000F0C5FC03E002F09EF80C
:100C000000E000BF00BFFF200149087010BD0000D8
:100C1000940000200D0A5365742041636343616CA6
:100C200069204572726F720D0A0000000D0A53654B
:100C300074204D616743616C69204572726F720D5B
:100C40000A0000000D0A5365742042616E647769E2
:100C5000647468204572726F720D0A000D0A536544
:100C6000742052617465204572726F720D0A000023
:100C70000D0A53657420525357204572726F720DDE
:100C80000A0000002DE9F84F07460C4690464FF049
:100C90000009CA4600250026A346A01D0090042591
:100CA000A7F15000102838D2DFE800F01608190F1D
:100CB0001D2124272A2D3037373737334FF0340999
:100CC00003254FF0400A012629E04FF03D09032596
:100CD0004FF02E0A012622E04FF030091FE04FF0BE
:100CE000370903251BE04FF03A09032517E04FF0C1
:100CF000410914E04FF0450911E04FF049090EE0B9
:100D00004FF04D090BE04FF0510908E04FF0550945
:100D100005E01448D0F8009001E0BDE8F88F00BF6E
:100D2000B8F1030F01D1032500265DB16A000E4919
:100D300001EB49005946FFF743FA294648460B4A5A
:100D4000126890475EB17200074901EB4A000099B2
:100D5000FFF736FA31465046044A1268904700BF02
:100D6000DBE700008C0000208017002078000020C6
:100D700030B50146C1F30325C1F3031201F00F039F
:100D8000A818C41804F00F0030BD000010B50A49BF
:100D90000A4800F051F968B10749084800F070F8B6
:100DA00000200749087000228021064801F0D0FC8D
:100DB00001F002FC10BD000000802020A060024075
:100DC0004A0000200044004010B50949094800F0DD
:100DD00033F958B10649074800F052F80648006850
:100DE000401C0549086001200449087010BD00003E
:100DF0002080001010640240600000205C00002091
:100E000010B50549054800F017F918B10249034823
:100E100000F036F810BD0000008020104064024051
:100E200010B50549054800F007F918B10249034813
:100E300000F026F810BD0000008000185864024041
:100E400010B50549054800F0F7F818B10249034804
:100E500000F016F810BD00002080002070640240F1
:100E600010B50549054800F0E7F818B102490348F4
:100E700000F006F810BD000000800028B8640240B1
:100E80000246094B9A4201D2084801E00648103850
:100E900001F000531BB1064B0B40C36002E0044B52
:100EA0000B40836070470000106402400060024005
:100EB0007D0F7D0F21B1026842F00102026003E064
:100EC000026822F00102026070470000016821F010
:100ED000010101600021016041608160C160016128
:100EE000212141614A49884204D13D21484A103AB2
:100EF00091608CE046491831884205D14FF4746105
:100F0000434A103A916082E041493031884205D12C
:100F10004FF474113E4A103A916078E03C494831F0
:100F2000884205D14FF07461394A103A91606EE001
:100F300037496031884204D13649354A103AD16088
:100F400065E033497831884204D13349304A103A58
:100F5000D1605CE02E499031884204D12F492C4A5F
:100F6000103AD16053E02A49A831884205D14FF0A8
:100F70003D51274A103AD16049E02949884204D1BD
:100F80003D21274A083A116041E02549183188423D
:100F900005D14FF47461224A083A116037E02049C4
:100FA0003031884205D14FF474111D4A083A11605E
:100FB0002DE01B494831884205D14FF07461184A31
:100FC000083A116023E016496031884204D1114982
:100FD000134A121F11601AE011497831884204D176
:100FE0000D490F4A121F116011E00D4990318842DE
:100FF00004D10A490A4A121F116008E00849A831C1
:10100000884204D14FF03D51054A121F11607047CC
:10101000106002403D000020400F002000003D20F5
:1010200010640240014600200A6802F001020AB181
:10103000012000E00020704770B502460020002427
:101040000025124EB24201D2114B01E00F4B103B72
:10105000104E0E4036B11E2606EAD124166806EA66
:10106000040502E0566906F0800501F000560EB155
:101070005C6800E01C68084E344004EA010616B1C2
:101080000DB1012000E0002070BD0000106402409E
:10109000006002403C0F3C0F7D0F7D0F10B501F04A
:1010A00080034BB122B1436943F08003436103E005
:1010B000436923F08003436180290BD02AB1036880
:1010C00001F01E042343036004E0036801F01E04E2
:1010D000A343036010BD000010B500220268134B4B
:1010E0001A40CC680B6823434C6923438C69234323
:1010F000CC6923430C6A23434C6A23438C6A234301
:101100004C6B23438C6B23431A430260426922F0E9
:101110000702D1E90B3423431A4342610B69436050
:101120004B6883608B68C36010BD00003F801CF07B
:101130004160704710B50446B4F5805F01DB40F6AE
:10114000FF742046FFF714FE40EA041080B210BD81
:1011500070B50B4602EB82056C00002110E0C1F176
:101160000F060125B5401D4025B104F5D27540F8A4
:10117000215003E004F1D00540F821504D1CE9B2A4
:101180001029ECDB00250564456470BD3EB50121E6
:1011900040F22F2000F0DAFD0020FFF7CBFF0446DD
:1011A000002221465A48FFF7D3FF0020FFF7C2FF75
:1011B0000446012221465748FFF7CAFF0020FFF7E7
:1011C000B9FF0446022221465348FFF7C1FF002021
:1011D000FFF7B0FF0446032221465048FFF7B8FF4F
:1011E0004FF4403012214A4B4D4ACDE900104FF0E8
:1011F00060614C4800F02AFA012251024848343814
:1012000000F071FE3A208DF8080000208DF80900EA
:101210008DF80A0001208DF80B0002A800F0F8FA02
:10122000012210213F48FFF739FF4FF440301221CF
:10123000384B3B4A121DCDE9001091053948183052
:1012400000F004FA012291023548343800F04BFED8
:101250003B208DF8080002A800F0DAFA01221021E4
:1012600030481830FFF71AFF4FF4403012212A4B54
:101270002B4A0832CDE900104FF060612948303028
:1012800000F0E4F90122D1022548343800F02BFEA9
:101290003C208DF8080002A800F0BAFA01221021C3
:1012A00020483030FFF7FAFE4FF4403012211B4B3C
:1012B0001B4A0C32CDE900104FF0606119487830BC
:1012C00000F0C4F9012211031548343800F00BFE78
:1012D00046208DF8080002A800F09AFA0122102199
:1012E00010487830FFF7DAFE01210E48FFF7E2FDE3
:1012F00001210C481830FFF7DDFD0121094830308D
:10130000FFF7D8FD012107487830FFF7D3FD3EBD38
:101310005C100020A4100020EC10002034110020EC
:1013200034040140406402401CB500BF012002F0BB
:1013300044F900BF1F480088ADF800001D484088F0
:10134000ADF802001B488088ADF804001948C08839
:10135000ADF8060000BF002002F02FF900BFBDF875
:101360000000FFF7E7FE0446002221461248FFF77F
:10137000EFFEBDF80200FFF7DDFE04460122214624
:101380000E48FFF7E5FEBDF80400FFF7D3FE044664
:10139000022221460A48FFF7DBFEBDF80600FFF7F0
:1013A000C9FE0446032221460648FFF7D1FE01206C
:1013B0001CBD00004E0000205C100020A410002086
:1013C000EC100020341100207047000010B5002000
:1013D0000549A1F80004A1F802044FF48061024815
:1013E000FEF707FF10BD00007C11002010B51BE0C8
:1013F0008021124801F0B5F9A8B11148B0F80204F3
:101400000F4A115C0D4801F078FA0D49B1F8021449
:10141000481CC11700EB91518912A0EB8121084AA9
:10142000A2F8021400E007E00548B0F800040449FF
:10143000B1F802148842DBD100BF10BD001001409A
:101440007C11002010B50446204600F001F810BDC4
:1014500010B5044603E04FF47A7000F005F8201E42
:10146000A4F10104F7D110BD10B5084B5968084B21
:101470001B68084CB3FBF4F303FB00F200BF034B03
:101480005B685B1A9342FAD310BD0000001000E0C5
:101490000000002040420F00F0B50A460021002362
:1014A000002400BF3DE0012505FA01F3156805EAB7
:1014B00003049C4234D105684F000326BE40B54367
:1014C000056015794E00B54006683543056015790D
:1014D000012D02D01579022D16D185684F00032603
:1014E000BE40B543856055794E00B54086683543AA
:1014F0008560456801268E40B5434560456896790C
:101500008E40B6B235434560C5684F000326BE40E5
:10151000B543C560D5794E00B540C6683543C56052
:10152000491C1029BFD3F0BDF0B5002300244D079E
:10153000ED0E02FA05F3CE1000F1200555F8265005
:101540004E07F70E0F26BE40B543CF1000F1200620
:1015500046F82750CE1000F1200555F8265045EAF0
:101560000304CE1000F1200545F82640F0BD41836C
:1015700070470183704742694A404261704700BF2B
:10158000FEE700000FB400B5A1B023A800908021B1
:1015900001A8009B229A01F0ADFF002000900548B1
:1015A000006818B101A803490968884721B05DF8AF
:1015B00014FB00009800002010B502F077FD0446EF
:1015C00005480068201AB0F5FA7F03D3024804608A
:1015D00000F034F810BD0000A000002010B500F0AD
:1015E00025F810BD1CB50121022000F06DF9402046
:1015F000009001208DF8040000208DF806000320E3
:101600008DF8050001208DF8070069460248FFF7B4
:1016100043FF00F003F81CBD0004024010B5402158
:101620000148FFF7A4FF10BD0004024010B540219F
:101630000148FFF79EFF10BD0004024010B5402195
:101640000148FFF798FF10BD000402402DE9F04764
:1016500090B004460E4617469846DDE918A5200CC2
:1016600000046649884204D10121400100F02CF9B0
:1016700003E00121480500F027F92046FFF726FC8A
:1016800000BF2046FFF7CEFC0028FAD10196029752
:10169000CDF80C8040200490CDF814A000200690D6
:1016A0004FF48060079080000890800009908011BE
:1016B0000A900B9500200C9003200D9000200E90B6
:1016C0000F9001A92046FFF707FD012210212046B7
:1016D000FFF7E4FC4FF000094948844202D14FF083
:1016E00038096AE046481830844202D14FF039097F
:1016F00063E043483030844202D14FF03A095CE065
:101700003F484830844202D14FF03B0955E03C4805
:101710006030844202D14FF03C094EE038487830C6
:10172000844202D14FF0440947E03548903084426A
:1017300002D14FF0450940E03148A830844202D13F
:101740004FF0460939E02F48844202D14FF00B098F
:1017500033E02C481830844202D14FF00C092CE0C1
:1017600028483030844202D14FF00D0925E0254849
:101770004830844202D14FF00E091EE0214860300B
:10178000844202D14FF00F0917E01E48783084429E
:1017900002D14FF0100910E01A489030844202D173
:1017A0004FF0110909E01748A830844202D14FF0E8
:1017B0002F0902E010B0BDE8F087B5F5403F02D038
:1017C000B5F5003F05D100208DF801008DF802002D
:1017D00005E001208DF8010000208DF802008DF851
:1017E000009001208DF80300684600F011F80121F7
:1017F0002046FFF75FFB00BFDCE70000000002406F
:10180000106402401060024000BFFEE77047000015
:1018100070B5002100230F22C4781CB3174C246834
:1018200004F4E064C4F5E064C4F30721C1F10404E6
:10183000E3B20A4144789C40E1B2847814402143E9
:101840000C07210E0E4C05786155047804F01F0535
:101850000124AC4005786D11AD0005F1E025C5F817
:10186000004109E0047804F01F050124AC40054D57
:101870000678761145F8264070BD00000CED00E0BA
:1018800000E400E080E100E002490143024A116007
:10189000704700000000FA050CED00E010B50028CC
:1018A00007DA0A07140E054A00F00F031B1FD45471
:1018B00003E00A07130E024A135410BD18ED00E0AE
:1018C00000E400E07047000029B1064A12680243B4
:1018D000044B1A6004E0034A12688243014B1A6009
:1018E000704700003038024029B1064A12680243AE
:1018F000044B1A6004E0034A12688243014B1A60E9
:10190000704700004038024029B1064A126802437D
:10191000044B1A6004E0034A12688243014B1A60C8
:101920007047000044380240F0B500210022002436
:10193000022500260223324F3F6807F00C0121B137
:10194000042905D0082937D105E02E4F076036E07D
:101950002C4F076033E02A4F3F1F3F68C7F3805684
:10196000274F3F1F3F6807F03F036EB1254FB7FB7E
:10197000F3F7DFF88CC0ACF1040CDCF800C0CCF35A
:10198000881C07FB0CF40CE01E4FB7FBF3F7DFF8E5
:1019900070C0ACF1040CDCF800C0CCF3881C07FB71
:1019A0000CF4174F3F1F3F68C7F301477F1C7D00B2
:1019B000B4FBF5F7076002E0124F076000BF00BFFD
:1019C0000F4F3F6807F0F00109090F4F7A5C076875
:1019D000D74047600A4F3F6807F4E051890A0A4F31
:1019E0007A5C4768D7408760054F3F6807F46041DD
:1019F000490B054F7A5C4768D740C760F0BD0000CF
:101A00000838024000127A001400002070470000DD
:101A1000342808D3362806D8134A126842F0010247
:101A2000114B1A601FE0372808D3392806D80E4A10
:101A3000126842F002020C4B1A6014E03D2808D3F1
:101A40003F2806D8084A126842F00402064B1A6082
:101A500009E03A2807D33C2805D8034A126842F027
:101A60000802014B1A6070479000002070B50446D0
:101A70000D462946204600F07BFC70BD0FB400B532
:101A80009BB01DA8019002A8019A1C9901F048FD85
:101A90000020019002A800F013F81BB05DF814FBC1
:101AA00010B504462146054800F027FF00BF8021FD
:101AB000024800F056FE0028F9D010BD0010014089
:101AC00070B50446002504E0605DFFF7E9FF681C7F
:101AD000C5B2605D0028F7D170BD00000CB50020D4
:101AE000019000903448006840F48030324908602A
:101AF00000BF3148006800F4003000900198401C9D
:101B00000190009818B90198B0F5A04FF1D12A487A
:101B1000006800F4003010B10120009001E00020C6
:101B200000900098012846D123484030006840F0DA
:101B300080502149403108602048006840F440400E
:101B40001E4908601C48083000681B4908310860BD
:101B50000846006840F4004008600846006840F409
:101B6000A05008601648091F0860081F006840F070
:101B70008070091F086000BF0F48006800F0007007
:101B80000028F9D040F205700E4908600A48083074
:101B9000006820F003000849083108600846006822
:101BA00040F00200086000BF03480830006800F001
:101BB0000C000828F8D10CBD00380240007000402D
:101BC00008544007003C024010B502F075FA10BD01
:101BD00010B51548006840F47000134908601348B8
:101BE000006840F001001149086000200F490831E9
:101BF00008600E4800680E4908400C4908600D480E
:101C0000091D0860081F006820F48020091F086073
:101C1000002006490C310860FFF760FF4FF00060BC
:101C200001498039086010BD88ED00E000380240AD
:101C3000FFFFF6FE1030002410B52DED028B0121C0
:101C4000094800F059F960B10121074800F02DF969
:101C5000FEF776FEB0EE408AB0EE480A02F094FF3E
:101C600000BFBDEC028B10BD001000407FB50446E4
:101C70000D4601211020FFF737FEA8B2ADF8000095
:101C80000020ADF802000194ADF8080069460E4846
:101C900000F0A2FA012211460B4800F03EF936206E
:101CA0008DF80C0004208DF80D0000208DF80E003A
:101CB00001208DF80F0003A8FFF7AAFD01210248BB
:101CC00000F0F6F87FBD00000010004010B50121C3
:101CD000054800F011F928B10121034800F0E5F8AA
:101CE00003F056F810BD0000001400407FB5044614
:101CF0000D4601212020FFF7F7FDA8B2ADF8000046
:101D00000020ADF802000194ADF8080069460E48C5
:101D100000F062FA012211460B4800F0FEF837206D
:101D20008DF80C0002208DF80D0000208DF80E00BB
:101D300001208DF80F0003A8FFF76AFD012102487A
:101D400000F0B6F87FBD00000014004030B58FB041
:101D500004460D4601210220FFF7D6FD0121042093
:101D6000FFF7B2FD032206213B48FFF7DDFB03220C
:101D700007213948FFF7D8FB032208213648FFF72F
:101D8000D3FB032209213448FFF7CEFB4FF47070D8
:101D90000D9002208DF8380003208DF839000020C6
:101DA0008DF83A0001208DF83B000DA92A48FFF775
:101DB00073FBA8B2ADF828000020ADF82A000B9400
:101DC000ADF830008DF832000AA9244800F004FA7A
:101DD00005A800F0F6F96020ADF814000120ADF878
:101DE00016000020ADF82000ADF82400079005A9EA
:101DF0001A4800F09BF80821184800F0D5F805A90A
:101E0000164800F0DBF80821144800F029F905A96C
:101E1000124800F033F90821104800F07FF905A9B5
:101E20000E4800F085F908210C4800F0BDF90121A9
:101E30000A4800F015F801A800F02EF801A907489B
:101E400000F01AF80121054800F032F8012103489A
:101E500000F03AF80FB030BD000802400004014025
:101E600021B1028842F08002028004E002884FF62D
:101E70007F731A40028070470A884B881A438B8808
:101E80001A43CB881A430B891A434B891A438B890F
:101E90001A43A0F8442070470021018041808180CE
:101EA000C1800181418181817047CA4302827047AC
:101EB00021B1028842F00102028004E002884FF65C
:101EC000FE731A400280704731B1B0F8442042F4EA
:101ED0000042A0F8442005E0B0F84420C2F30E020E
:101EE000A0F8442070471AB183890B43838102E034
:101EF00083898B438381704730B5024600200023DD
:101F00000024158A05EA0103958905EA010413B145
:101F10000CB1012000E0002030BD1AB183890B43D1
:101F2000838102E083898B438381704770B50024ED
:101F300000220023058C4FF6FE7635400584028C86
:101F40008388048B4FF68F752C40B51E2C400D886E
:101F50002C43751E2A408D892A434D882A43104DF3
:101F6000A84202D00F4DA84213D14FF6F7752A4070
:101F7000CD892A434FF6FB752A408D882A434FF6B8
:101F8000FF652B404FF6FF552B400D8A2B434D8AA2
:101F90002B43838004838D684563028470BD0000F9
:101FA00000000140000401400A460021018B4FF669
:101FB000F7731940114301837047000070B5002486
:101FC00000220023058C4FF6EF7635400584028C05
:101FD0008388048B48F6FF752C404FF6FF452C4054
:101FE0000D884FF6FF7606EA05252C434FF6DF7580
:101FF0002A408D8906EA05152A434D8806EA05150B
:102000002A43154DA84202D0144DA8421DD14FF6C7
:102010007F752A40CD894FF6FF7606EA05152A43DB
:102020004FF6BF752A408D8806EA05152A434FF6FC
:10203000FF352B404FF2FF752B400D8A06EA8505D0
:102040002B434D8A06EA85052B43838004838D68E4
:102050008563028470BD000000000140000401405F
:102060000A460021018B4FF2FF7319404FF6FF73B0
:1020700003EA0223194301837047000070B500246E
:1020800000220023058C4FF6FF6635400584028C44
:102090008388848B4FF68F752C404FF6FC752C404F
:1020A0000D882C434FF6FF552A408D894FF6FF7659
:1020B00006EA05252A434D8806EA05252A43154DDB
:1020C000A84202D0144DA8421DD14FF2FF752A40FC
:1020D000CD894FF6FF7606EA05252A434FF6FF35F0
:1020E0002A408D8806EA05252A434EF6FF752B40C7
:1020F0004DF6FF752B400D8A06EA05152B434D8AD8
:1021000006EA05152B43838084838D68C5630284AA
:1021100070BD000000000140000401400A4600219B
:10212000818B4FF6F773194011438183704700008C
:1021300070B5002200230024058C4EF6FF76354052
:102140000584038C8488828B48F6FF752A404FF6FD
:10215000FF452A400D884FF6FF7606EA05252A43FB
:102160004DF6FF752B408D8906EA05352B434D88CA
:1021700006EA05352B430A4DA84202D0094DA84274
:1021800008D14BF6FF752C400D8A4FF6FF7606EA14
:1021900085152C43848082838D680564038470BD1B
:1021A00000000140000401400A460021818B4FF2EB
:1021B000FF7319404FF6FF7303EA0223194381832B
:1021C0007047002101804180818081608181C181CF
:1021D000018241827047000000220288184B984219
:1021E0000ED0184B98420BD0B0F1804F08D0164B50
:1021F000984205D0154B984202D0154B984204D115
:102200004FF68F731A404B881A43124B984207D0EF
:10221000114B984204D04FF6FF431A400B891A43E2
:1022200002804B68C3620B880385054B984202D03D
:10223000044B984201D18B7A038601238382704735
:10224000000001400004014000040040000800407C
:10225000000C0040001000400014004010B540F297
:102260002551064800F08AFA38B1044800F040FBD6
:10227000C4B2204600F09CFB00BF10BD00500040DF
:1022800000B587B001210420FFF71EFB01210820C3
:10229000FFF71AFB01210805FFF726FB08220C2196
:1022A0003048FFF741F9082202212F48FFF73CF997
:1022B0004FF48050059002208DF818008DF8190019
:1022C00000208DF81A0001208DF81B0005A9254873
:1022D000FFF7E2F80420059002208DF818008DF831
:1022E000190000208DF81A008DF81B0005A91E4862
:1022F000FFF7D2F84FF4E13001900020ADF808006C
:10230000ADF80A00ADF80C00ADF810000C20ADF8E7
:102310000E0001A9154800F081FA012240F2255172
:10232000124800F055FA35208DF8000000208DF895
:10233000010001208DF802008DF803006846FFF7C8
:1023400067FA0121094800F0F7F902E0074800F0B8
:10235000CFFA2021054800F004FA0128F6D007B092
:1023600000BD000000080240000C02400050004088
:1023700070B504460D4600260CE000BF80210A48D7
:1023800000F0EFF90028F9D014F8011B064800F01E
:10239000B4FA761CAE42F0D300BF4021024800F0F0
:1023A000E0F90028F9D070BD0050004010B540F2AF
:1023B0002551094800F0E2F901280CD1064800F047
:1023C00097FAC4B2054804700120054908702046F8
:1023D00000F0A6FA00BF10BD001001404800002028
:1023E0004900002000B587B001211020FFF78CFACA
:1023F00001210846FFF768FA072209212448FFF760
:1024000093F807220A212248FFF78EF84FF4C060A4
:10241000059002208DF8180000208DF81A00032086
:102420008DF8190001208DF81B0005A91848FFF749
:1024300033F84FF4E13001900020ADF810000C208B
:10244000ADF80E000020ADF80C00ADF80A00ADF8B4
:10245000080001A90F4800F0E1F901210D4800F042
:102460006BF9012240F225510A4800F0B1F925200C
:102470008DF8000001208DF803008DF80100002088
:102480008DF802006846FFF7C3F907B000BD0000F1
:10249000000002400010014000B591B00121480544
:1024A000FFF712FA1F48FEF711FD00BF1D48FEF7A7
:1024B000B9FD0028FAD14FF0006001901A4802904F
:1024C0001A480390402004900020059006904FF495
:1024D000806007900020089009900A904FF48030A7
:1024E0000B9000200C9003200D9000200E900F9078
:1024F00001A90C48FEF7F0FD012210210948FEF762
:10250000CDFD11208DF8400002208DF84100002003
:102510008DF8420001208DF8430010A8FFF778F9EC
:1025200011B000BDA0600240044400404C070020F0
:1025300070B505460C461C480078082800DB70BDC5
:10254000B4F5807F01DD4FF4807400200AE0295C3F
:10255000164A127802EBC212154B03EB42021154D9
:10256000411C88B2A042F2DB1048007800EBC0109A
:102570000F4901EB4000A0F800410C490978481CC4
:10258000C11700EB5171C910A0EBC101074A1170CE
:1025900005480078401C044908700648007808B9CE
:1025A00000F00AF800BFCAE74D0000204B000020F1
:1025B0004C0800204A00002010B52348007810B1D4
:1025C0002248007800B110BD2148007800EBC0100F
:1025D000204901EB4000B0F8004100200BE01C490D
:1025E000097801EBC1111B4A02EB4101095C1A4A4F
:1025F0001154411C88B2A042F1DB15490978481CEE
:10260000C11700EB5171C910A0EBC101104A117044
:102610000D480078401E0C49087000210F48FEF755
:1026200049FC21460D48FEF783FD012280210C481C
:1026300000F08EF801210948FEF73CFC0120034917
:10264000087000BFBFE700004D0000204A000020D6
:102650004C0000204C0800204C070020A0600240E5
:102660000044004010B540F22551064800F086F8BD
:1026700038B1044800F03CF9C4B2204602F036FA02
:1026800000BF10BD0044004000B587B001210846DE
:10269000FFF71AF901214804FFF726F90722022162
:1026A0002348FEF741FF072203212148FEF73CFFA4
:1026B0000C20059002208DF818008DF819000020DC
:1026C0008DF81A0001208DF81B0005A91848FEF7A7
:1026D000E3FE4FF4E13001900020ADF80800ADF8C2
:1026E0000A00ADF80C00ADF810000C20ADF80E009B
:1026F00001A9104800F092F801210E4800F01CF8E2
:10270000012240F225510B4800F062F826208DF896
:10271000000000208DF801008DF8020001208DF8E6
:1027200003006846FFF774F8FFF7B6FE07B000BD78
:10273000000002400044004021B1828942F400526E
:10274000828104E082894DF6FF731A4082817047CE
:102750001AB1838A0B43838202E0838A8B4383828C
:10276000704702460020B1F5007F00D100BF1388FA
:102770000B400BB1012000E00020704770B502460D
:10278000002400230025002040F66A16B14200D143
:1027900000BFC1F3421501F01F03012606FA03F33F
:1027A000012D02D19689334006E0022D02D1168A0E
:1027B000334001E0968A33400C12012606FA04F4F5
:1027C0001688344013B10CB1012000E0002070BD28
:1027D000F0B50346002400260025002040F66A17C5
:1027E000B94200D100BF1846C1F3421401F01F06E0
:1027F000012707FA06F5012C01D10C3004E0022C68
:1028000001D1103000E014301AB107682F4307607F
:1028100002E00768AF430760F0BD00002DE9FF4705
:1028200005460E460024A14600BFA046B08900B16F
:1028300000BF2C8A24F44054F08804432C82AC89D5
:1028400041F20C608443B0883189084371890843A0
:102850000443AC81AC8A24F44074B0890443AC8254
:102860006846FFF761F82048854202D01F4885423C
:1028700002D1DDF80C9001E0DDF80890A88900F4A1
:10288000004040B109EBC90000EB09103168490074
:10289000B0FBF1F707E009EBC90000EB0910316864
:1028A0008900B0FBF1F76420B7FBF0F004012009C8
:1028B000642101FB1078A88900F4004040B1322067
:1028C00000EBC800B0FBF1F000F00700044308E0A3
:1028D000322000EB08106421B0FBF1F000F00F0093
:1028E00004432C81BDE8FF87001001400014014023
:1028F00001468888C0F308007047C1F3080282804F
:10290000704700BFFEE70000014611B96FF00500F7
:102910007047024801600020FAE700007C000020B8
:1029200010B50446204600F003F8FEF7FDF810BD90
:1029300010B504461B4801780078401C194A1070F5
:102940001948445410460078032800DA10BD154891
:102950000078322802DB0020124908701148007804
:1029600003281DDB104840780D280FD10E488078D1
:102970000A280BD10C4800780C49087032210A480B
:10298000FDF737FC00200749087009E00648407849
:10299000054908700846807848700220014908708F
:1029A00000BFD3E79C000020D41800209400002032
:1029B00010B50446204600F0EFFA10BD10B500B97E
:1029C00010BDA94B1A68002A7DD002F00103E3B3C1
:1029D000A64BB3F9683000EE103AA44BB3F96A3055
:1029E00000EE903AA14BB3F96C3001EE103AF8EEDC
:1029F000C01A9FED9F2AC1EE822AF3EE001A62EE02
:102A0000A11A9C4BC3ED001AF8EEE01A9FED982A2C
:102A1000C1EE822AF3EE001A62EEA11AC3ED011A8A
:102A2000F8EEC11A9FED922AC1EE822AF3EE001A47
:102A300062EEA11AC3ED021A93F8303023F00103BD
:102A40005B1C8C4C84F8303000BF02F00203DBB317
:102A5000864BB3F96E3000EE103A844BB3F9703008
:102A600000EE903A814BB3F9723001EE103AF8EE75
:102A7000C01A9FED7F2AC1EE822ADFED7F1A62EE37
:102A8000A11A7C4BC3ED031AB8EEE02ADFED782AD9
:102A9000C2EE221A9FED782A61EE821AC3ED041A63
:102AA000F8EEC11A9FED722AC1EE822ADFED721A8A
:102AB00062EEA11AC3ED051A93F8303023F0020339
:102AC0009B1C6C4C01E07AE002E084F8303000BFDF
:102AD00002F00403E3B3654BB3F97A3000EE103A29
:102AE000624BB3F97C3000EE903A604BB3F97E3024
:102AF00001EE103AB8EEC02ADFED5D2AC2EE221ACE
:102B00009FED5E2A61EE821A5A4BC3ED061AB8EEAB
:102B1000E02ADFED572AC2EE221A9FED582A61EE15
:102B2000821AC3ED071AB8EEC12ADFED512AC2EEB0
:102B3000221A9FED522A61EE821AC3ED081A93F809
:102B4000303023F004031B1D4A4C84F8303000BFA2
:102B500002F0080383B3454BB3F9743000EE103A2A
:102B6000424BB3F9763000EE903A404BB3F97830EF
:102B700001EE103AF8EEC01AB2EE042AC1EE822A33
:102B80003C4BC3ED092AF8EEE01AB2EE042AC1EE7E
:102B9000822AC3ED0A2AF8EEC11AB2EE042AC1EE67
:102BA000822AC3ED0B2A93F8303023F00803083350
:102BB000304C84F8303000BF00232B4C23600021C0
:102BC0002DE02C4B03EB810393ED000A00EB810316
:102BD00083ED000A274B0C3303EB810393ED000ACE
:102BE00000F10C0303EB810383ED000A214B183342
:102BF00003EB810393ED000A00F1180303EB81035B
:102C000083ED000A1B4B243303EB810393ED000A91
:102C100000F1240303EB810383ED000A491C03291F
:102C2000CFDB144B93F8303010F8304F63F30004CF
:102C30000470104B93F830305C08037864F3410360
:102C400003700C4B93F830309C08037864F38203D4
:102C50000370084B93F83030DC08037864F3C30347
:102C600000F8303900BFABE690000020801700204C
:102C700000000047A01800200000FA440000344380
:102C800010B5134800F07CFA1248FFF73DFE1248D9
:102C900000F076F95021002000F05CF9092000F0E6
:102CA000E1FA1E2000F0AAFA0C48006818B1C8200A
:102CB0000A49096888470A48FEF764FC09A0FEF73C
:102CC00061FC00F03BF8144800F032F810BD000041
:102CD0006D1A000845140008111A00087C00002035
:102CE0007C6600084F757470757420726174653A63
:102CF00020313030487A2C20436F6E74656E743A00
:102D0000204143432B4759524F2B414E474C452BB3
:102D10004D41470D0A0000001D2D000810B5044666
:102D2000214602A0FEF7AAFE10BD00002573000098
:102D300001490860704700009800002010B5154850
:102D4000FEF720FC1448FEF71DFC14A0FEF71AFC49
:102D50001E48FEF717FC1EA0FEF714FC26A0FEF787
:102D600011FC30A0FEF70EFC3BA0FEF70BFC47A0C9
:102D7000FEF708FC53A0FEF705FC6048FEF702FCD6
:102D80005FA0FEF7FFFB6BA0FEF7FCFB7048FEF7B1
:102D9000F9FB10BD30660008E46500085541525447
:102DA0002053454E443A615C725C6E2020204163A2
:102DB00063656C65726174696F6E2063616C6962D2
:102DC000726174696F6E2E0D0A0000008C67000836
:102DD000554152542053454E443A555C725C6E2026
:102DE000202042616E64776964746820696E637242
:102DF000656173652E0D0A00554152542053454EAE
:102E0000443A755C725C6E20202042616E64776982
:102E100064746820726564756374696F6E2E0D0A40
:102E200000000000554152542053454E443A425C44
:102E3000725C6E202020426175642072617465208E
:102E4000696E6372656173656420746F203131351A
:102E50003230302E0D0A0000554152542053454E59
:102E6000443A625C725C6E2020204261756420727C
:102E700061746520726564756374696F6E20746F28
:102E800020393630302E0D0A0000000055415254D2
:102E90002053454E443A525C725C6E2020205468A8
:102EA000652072657475726E207261746520696E3A
:102EB0006372656173657320746F203130487A2EB8
:102EC0000D0A0000554152542053454E443A725C5D
:102ED000725C6E2020205468652072657475726E75
:102EE000207261746520726564756374696F6E2009
:102EF000746F2031487A2E0D0A0000002867000800
:102F0000554152542053454E443A635C725C6E20E6
:102F1000202052657475726E20636F6E74656E74D6
:102F20003A20616363656C65726174696F6E2E0D22
:102F30000A000000554152542053454E443A685C03
:102F4000725C6E20202068656C702E0D0A000000F7
:102F5000D46600080246032A02D96FF005007047C4
:102F600004480260044801700020044B186000BF50
:102F7000F5E7000088000020800000208400002089
:102F8000014611B96FF0050070470248016000204A
:102F9000FAE70000780000202DE9FC4180467248E5
:102FA000006808B9BDE8FC81704801680068401CF1
:102FB0006E4A10606E4800F801806E48006830B1BB
:102FC000012859D0022874D0032854D1BCE06848A5
:102FD000007855280CD065480068401E6349086099
:102FE00008466349491C0268481EFDF7E9F8D9E71D
:102FF0005E4800680B283ED30A215D4800F0BEFA07
:1030000007465B48807AB8420CD058480068401E9A
:103010005649086008465649491C0268481EFDF793
:10302000CFF8BFE7524880785149C97840EA01207B
:10303000ADF800004E4800794D49497940EA012039
:10304000ADF802004A4880794949C97940EA01202F
:10305000ADF804004648007A4549497A40EA012023
:10306000ADF806004249487804226946FDF70AFE99
:1030700000203E4908606BE03C480068022861D9A6
:103080003B48407803280CD038480068401E374938
:10309000086008463649491C0268481EFDF790F84A
:1030A00080E733488078401D30490968884201D95B
:1030B00078E748E02D480068401E2D49095C2B4800
:1030C0000068801E2A4A105C41EA002527480088D3
:1030D000801E81B2104600F035FA0646B5420CD08B
:1030E00022480068401E2149086008462049491CC2
:1030F0000268481EFDF764F854E71D4880784510C3
:10310000002414E0042000EB44001949085C03216A
:1031100001EB4401164A515C40EA012000B2164915
:1031200009682144154A22F81100601C84B2AC429F
:10313000E8DB2946104800680B4A126890470020D7
:103140000A49086004E000BF00200849086000BF89
:1031500000BF06480068B0F5807F02D10020034917
:10316000086000BF1EE700007800002084000020F7
:1031700080160020880000208C000020801700208E
:10318000014611B96FF00500704702480160002048
:10319000FAE700006800002010B50446062200216E
:1031A00020B2FDF7B8FC10B96FF0050010BD4BF26E
:1031B0008851692000F000F910B16FF00200F5E7C6
:1031C0000C480068012804D114200B49096888477D
:1031D00006E00848006818B90120074909688847CF
:1031E000A1B21F2000F0E8F810B16FF00200DDE797
:1031F0000020DBE7880000207C00002010B504469A
:1032000040F6FF72012120B2FDF785FC10B96FF086
:10321000050010BD4BF28851692000F0CDF810B1C7
:103220006FF00200F5E70D480068012804D1142072
:103230000B490968884706E00848006818B901206A
:10324000074909688847A1B2022000F0B5F810B11B
:103250006FF00200DDE70020DBE7000088000020BF
:103260007C00002010B504460D22012120B2FDF79C
:1032700052FC10B96FF0050010BD4BF28851692067
:1032800000F09AF810B16FF00200F5E70C48006802
:10329000012804D114200B490968884706E0084832
:1032A000006818B90120074909688847A1B20320BE
:1032B00000F082F810B16FF00200DDE70020DBE7DC
:1032C000880000207C00002010B54BF28851692056
:1032D00000F072F810B16FF0020010BD0C480068E9
:1032E000012804D114200B490968884706E00848E2
:1032F000006818B901200749096888470121084674
:1033000000F05AF810B16FF00200E6E70020E4E7A1
:10331000880000207C00002010B54BF28851692005
:1033200000F04AF810B16FF0020010BD0C480068C0
:10333000012804D114200B490968884706E0084891
:10334000006818B90120074909688847072101204A
:1033500000F032F810B16FF00200E6E70020E4E779
:10336000880000207C00002010B54BF288516920B5
:1033700000F022F810B16FF0020010BD0C48006898
:10338000012804D114200B490968884706E0084841
:10339000006818B901200749096888470021012001
:1033A00000F00AF810B16FF00200E6E70020E4E751
:1033B000880000207C0000202DE9FC4105460C46D9
:1033C000902D03D36FF00500BDE8FC8144480068F0
:1033D00030B101281FD0022847D003287AD161E0FC
:1033E0004048006810B96FF00400EDE7FF208DF849
:1033F0000000AA208DF80100E8B28DF80200E0B2CA
:103400008DF8030020128DF8040005216846354A26
:103410001268904761E03348006810B96FF004000B
:10342000D2E7314800788DF8000006208DF80100C1
:10343000280A8DF80200E8B28DF8030020128DF8FA
:103440000400E0B28DF805000621684600F07AF825
:10345000064630128DF80600F0B28DF807000821FC
:103460006846204A1268904737E02048006810B943
:103470006FF00400A8E7FF208DF80000AA208DF867
:103480000100E8B28DF80200E0B28DF803002012CE
:103490008DF804000522694613480078134B1B6819
:1034A00098471AE01248006810B96FF004008BE7E3
:1034B000E0B28DF8000020128DF80100E9B20A4A4E
:1034C00012785206100E02236A46094F3F68B84729
:1034D00003E0FFE76FF0050076E700BF002073E729
:1034E0008800002068000020800000207400002078
:1034F0006C0000207CB5044600201D4616460029BD
:103500000BD0491ECDE90041044B6A46294630469E
:1035100000F0EAF9009A002111707CBD1740000804
:1035200037B514460846064B6A46214600F0DCF9DA
:1035300004466946002000F079FD20463EBD0000AB
:103540002D40000870B503460C46FF25FF260022DB
:1035500000BF00BF09E0985C80EA05010548405CB7
:1035600080EA06050448465C521CA242F3DB46EAA8
:10357000052070BDE4630008E464000810B502464D
:103580000B460020002103E0545C0444E0B2491CD7
:103590009942F9D310BD02E008C8121F08C1002AE1
:1035A000FAD170477047002001E001C1121F002AC4
:1035B000FBD1704780F31088704780F31088704704
:1035C0002DE9FF5F82B00021DDE90430020DDDF856
:1035D00040B0034318D044F61050A2F2FF324243E9
:1035E0001514119801281FD0A5EB0B00401C5FEAB1
:1035F000000A4FF000064E4FDFF83891B0465046B3
:1036000015D5CAF1000413E0119801244AA301283A
:1036100001D16FEA0B010298119AC0E90031C0E9AB
:10362000024206B0BDE8F09FCBF10000DFE70446A0
:103630000021404A491842EB0450CDE9001012E045
:10364000E00707D032463B4640464946FCF7D7FEE6
:103650008046894632463B4610461946FCF7CFFE67
:1036600006460F466410002CEAD1DDE90401DDE9CD
:103670000023BAF1000F06DAFCF7C1FE42464B46C2
:10368000FCF7BDFE05E0FCF72CFF42464B46FCF77D
:1036900028FF04460E460022284BFCF7A9FF03D85A
:1036A0004FF0FF30014607E00022254B204631460F
:1036B000FCF7FEFDFCF784FF102409E0002C0ADB78
:1036C0000A220023FCF7C3FD039B30321A55641E07
:1036D00050EA0102F2D1641C039AC4F111031444AC
:1036E000119A012A03D0012208430DD10AE00843B0
:1036F00004D000204FF0110B119072E7A3EB0B05E3
:103700006D1E0DE05B4504DD4FF0000205F1010583
:1037100004E003DA4FF00002A5F10105002AECD025
:1037200002981199C0E90231C0E9004579E700002B
:10373000000014400000F03F300000000000F043A3
:103740000000E03F2DE9FF4F8DB00D46174699462A
:103750001A9E0D9801F046F804464FF009084FF004
:10376000000A207BC0F340000390039840B9206911
:1037700030B12069007800F0010008B1012000E0BC
:10378000002083460398F0B14E46FF2D05D9204610
:1037900000F090F811B0BDE8F08F4FF00508FE2062
:1037A0008DF824008DF82560A0798DF8260040481A
:1037B00000788DF827003E4840788DF82800E8B260
:1037C0008DF829002DE000200290BBF1000F03D0FE
:1037D000029840F0010002903146384600F06EF841
:1037E0000646FD208DF824008DF8256002988DF89E
:1037F000260000208DF82700A0798DF828002C489D
:1038000000788DF829002A4840788DF82A00E8B21F
:103810008DF82B00280A8DF82C00280C8DF82D002F
:1038200000BFA079401CA07141460DF1250000F0B9
:1038300026FC0C90324639460CA800F00DFC0CA971
:103840001B9800F0F8FBBDF83000C0B28DF82000E6
:10385000BDF8300000128DF82100BBF1000F0CD034
:1038600008A808F10101CBB2CDE90076029009AABF
:1038700004A9206901F00EFD824608F1010209A9A0
:103880000D9800F027F8324639460D9800F022F8DE
:10389000022208A90D9800F01DF8BAF1000F04D01B
:1038A000524604A90D9800F015F800BF72E7000019
:1038B000280000208178491C81707047024601E091
:1038C000481EC1B2012903DD481E105C0028F7D054
:1038D0000846704770B504460D46164632462946DE
:1038E000204601F017FB70BD2DE9FF4F95B09B46B8
:1038F0008946064600250FE2252877D10024274671
:10390000F84A0121059400E0044316F8013F203BEA
:1039100001FA03F01042F7D130782A2811D06FF065
:103920002F033078A0F13002092A16D8059A44F006
:10393000020402EB820203EB42021044761C059063
:10394000EFE759F8042B0592002A03DA504244F4B9
:103950000054059044F00204761C30782E2816D1CD
:1039600016F8010F44F004042A280DD06FF02F023E
:103970003078A0F13003092B09D807EB870302EB5D
:103980004303C718761CF3E759F8047B761C30789C
:103990006C280FD006DC4C2817D068280DD06A2878
:1039A00014D104E0742810D07A280FD10DE044F42B
:1039B00000140AE044F4801401E044F440147278E6
:1039C000824202D104F58014761C761C3078662879
:1039D0000BD013DC582877D009DC002875D0452897
:1039E000F6D04628F4D047281AD19DE118E0632884
:1039F00035D0642879D0652812D195E1702873D02C
:103A000008DC6728F1D069286FD06E280DD06F28A8
:103A100006D1B5E073282CD0752875D0782874D0DD
:103A20005A46179990476D1C75E1C4F3025002285D
:103A300009D003280DD0D9F8001004280DD00D604E
:103A400009F1040967E1D9F80010EA17C1E9005249
:103A5000F6E7D9F800100D80F2E70D70F0E719F8DD
:103A6000041B8DF8001000208DF80100EA460120AB
:103A700003E059F804AB4FF0FF3061074FF000014D
:103A800002D40DE008F101018846B9420FDA804501
:103A9000F8DB1AF808100029F4D108E008F1010158
:103AA00088468142FADB1AF808100029F6D10598F9
:103AB0005B46A0EB080721463846179A00F094FAB7
:103AC000284400EB080507E04DE029E10DE01AF875
:103AD000010B5A4617999047B8F10108F7D25B4697
:103AE00021463846179A13E142E00A220092C4F3B5
:103AF00002524FF0000A022A08D059F804CB032AD8
:103B00004FEAEC710AD00DE029E02AE009F1070143
:103B100021F00702F2E802C1914609E00FFA8CFC9D
:103B20004FEAEC71042A03D14FFA8CFC4FEAEC7196
:103B3000002907DA0A460021DCF1000C61EB0201E2
:103B40002D2202E0220504D52B228DF8042001222B
:103B500003E0E20701D02022F7E7904659E00A216E
:103B600002E010220DE010214FF0000A00910BE05E
:103B700010224FF0000A44F004040827009203E0EA
:103B800008224FF0000A0092C4F30252022A05D024
:103B900059F804CB0021032A08D009E009F10701F4
:103BA00021F00702F2E802C1914605E01FFA8CFC01
:103BB000042A01D10CF0FF0C4FF00008220728D591
:103BC000702806D0009B83F0100353EA0A0305D047
:103BD0000EE040228DF80420012208E05CEA010298
:103BE00006D030228DF804208DF805000222904680
:103BF000009B83F0080353EA0A030AD15CEA01023E
:103C000001D1620705D530228DF804204FF001085C
:103C10007F1E582804D034A003900EA802900DE017
:103C200036A0F9E753466046009AFCF710FB84463D
:103C30000398825C0298401E029002705CEA0100C8
:103C4000F0D1029806A9081A00F1200A600702D5EF
:103C500024F4803400E00127574502DDA7EB0A0079
:103C600000E0002000EB0A01009005984144401A52
:103C70000590E00306D45B462146179A059800F0AC
:103C8000B3F90544002706E001A85A46C05D17991C
:103C900090476D1C7F1C4745F6DBE0030CD55B4667
:103CA0002146179A059800F09FF9054404E030205A
:103CB0005A46179990476D1C0099481E009000299C
:103CC000F5DC08E0029802995A460078491C0291F6
:103CD000179990476D1CBAF10001AAF1010AF1DCB5
:103CE00065E10000092801003031323334353637C0
:103CF0003839616263646566000000003031323338
:103D000034353637383941424344454600000000D7
:103D100000F058F90544761C307800287FF4ECADAB
:103D200019B02846BDE8F08F620700D4062709F1D4
:103D3000070222F0070CFCE80223E14603F00048EA
:103D40005FEA080C02D00FF2702C0DE05FEA045C11
:103D500002D50FF2682C07E05FEAC47C02D00FF2B4
:103D6000602C01E0AFF2700C4FF0FF3823F00043FD
:103D7000CDF850C065280CD006DC452809D046286F
:103D80001DD047283DD13DE0662818D067287ED158
:103D900038E00021112F01DB112000E0781CCDE973
:103DA000000106A90EA8FFF70BFCDDE90F010E9A32
:103DB00003910021009207F1010A04914DE04FF0B8
:103DC00000400097CDE9011006A90EA8FFF7F8FB07
:103DD000DDE90F0203920E9B11990022DDF80CA081
:103DE0000093049211B9791C00EB010AB7EB0A00A9
:103DF00004D4C0F1FF3007F1010A0490AAEB0700D8
:103E0000019044E0012F00DA01270021112F01DD8C
:103E1000112000E03846CDE9000106A90EA8FFF701
:103E2000CFFBDDE90F010E9A03910021049100926E
:103E3000BA4621070CD40399514500DA8A46BAF1F3
:103E4000010F05DD009AAAF10101515C302908D06B
:103E5000B84202DA10F1040F06DA0121CDE90110AF
:103E600015E0AAF10101E9E7002805DC0499014405
:103E70000491AAEB000102E0411C514500DD8A4695
:103E80000499401A401C01904FF000400290200716
:103E900004D40198504501DBCDF8048000208DF852
:103EA0004F0002980DF14F07B0F1004F25D02B20A5
:103EB0000E9002984FF0020800280CDA404202905F
:103EC0002D200E9007E00A210298FCF7AAF9303164
:103ED000029007F8011DB8F10001A8F10108F2DC19
:103EE00002980028EFD1791E0E980870307800F003
:103EF000200040F0450007F8020D12A8C01B00F199
:103F000007081498007800B1012000EB0A0101981D
:103F100001EBE07105984144401A401E0590E00312
:103F200006D45B462146179A059800F05DF80544D3
:103F30001498007818B15A46179990476D1CE00301
:103F400024D55B462146179A059800F04DF80544A4
:103F50001CE00498002807DBDDE90301884203DD4B
:103F60000098405C179901E0179930205A46904715
:103F7000049805F10105401C04900198401E019031
:103F800004D12E205A46179990476D1CBAF10001B2
:103F9000AAF1010ADDDC05E017F8010B5A46179972
:103FA00090476D1CB8F10001A8F10108F4DC5B46F4
:103FB0002146179A0598ABE62D0000002B00000063
:103FC000200000002DE9F041044600251E4617465A
:103FD000880404D405E039462020B0476D1C641ED7
:103FE000F9D52846BDE8F0812DE9F04104460025C9
:103FF0001E469046C80301D5302700E020278804DC
:1040000004D505E041463846B0476D1C641EF9D51D
:104010002846BDE8F0814A68002A06D00A68531C89
:104020000B6010704868401E486070470A68531C57
:104030000B601070704702460B7883EA020080EA3A
:104040000013D8B20B881B1283EA002383EAC00353
:1040500083EA20130B8070472DE9F04104460D469A
:1040600016462F4604E017F8010B2146FFF7E3FF41
:10407000301EA6F101018EB2F5D1BDE8F08138B550
:1040800004460D4600BF4FF6FF70009000BF04E0ED
:1040900014F8010B6946FFF7CEFF281EA5F10101B8
:1040A0008DB2F5D1BDF8000038BD000001480068B0
:1040B000704700004400002002480068401C01498D
:1040C00008607047440000200848006840F0807095
:1040D000064908600648074908600020064948600C
:1040E0000846006840F0010008607047FCED00E001
:1040F00055CEACC5B01F00E0001000E01CB501F0CB
:1041000061FCFEF76FF9FDF761F9FEF7B9F8FEF70C
:10411000B7FDFEF7B9FAFDF739F8FDF763FAFCF7DA
:1041200047FB532142F20F70FDF7E0FD42F2CF0151
:1041300042F20F70FDF79AFD23A0FDF79FFC23A02C
:10414000FDF79CFC2CA0FDF799FC20A0FDF796FC48
:1041500034A0FDF793FC39A0FDF790FC40A0FDF7DB
:104160008DFC46A0FDF78AFC18A0FDF787FC4AA04D
:10417000FDF784FC14A0FDF781FC24E0002400BFBF
:10418000012080F3108800BF00BF0BE0694601A842
:1041900001F066FCBDF8000047499DF8042021F8B5
:1041A0001200012401F03CFC0028EFD100BF00BF49
:1041B00080F3108800BF00BF0CB1FDF7B5F8FDF724
:1041C000FBF9FDF713F9D9E70D0A00003D3D3D3D30
:1041D0003D3D3D3D3D3D3D3D3D3D3D3D3D3D3D3D0F
:1041E0003D3D3D3D3D3D3D3D3D3D3D3D3D3D3D3DFF
:1041F0003D3D3D3D0D0A000020202020202020468E
:104200004C59434F4E54524F4C2053544D33324629
:104210003430352053797374656D202020202020A0
:104220000D0A000053797374656D20436C6F636BE6
:104230003A20313638204D487A0D0A004453484F11
:1042400054204D6F64653A204453484F5431353003
:1042500020285043362D504339290D0A0000000014
:104260004D41564C696E6B3A205265616479202845
:10427000555341525432290D0A000000494D553A18
:10428000205769744D6F74696F6E202855415254E0
:1042900035290D0A0000000057616974696E6720B6
:1042A000666F7220524320636F6D6D616E64732E72
:1042B0002E2E0D0A000000004E00002070B50646AC
:1042C0000C46154624B929463046FBF792FF04E018
:1042D0002A4621463046FBF773FF70BD2DE9FE43A9
:1042E00005460E4617461C46DDE90A8900233A4674
:1042F000314628468DE8100300F0AEF8BDE8FE8395
:104300002DE9F04F87B00446894692461D46DDF8F8
:1043100044B0287BC0F3400646B9286930B128690B
:10432000007800F0010008B1012000E00020804684
:10433000B8F1000F01D00D2000E0002006900A2700
:104340001EB1FE20A070062701E0FD20A0700EB176
:10435000109804E0594604F10C00FFF7AFFAE07042
:1043600084F8079084F808A000202071B8F1000FAD
:1043700003D0207940F00100207100206071A879FD
:10438000A071A879401CA871A0788DF80C00E07885
:104390008DF80D006EB1A0798DF80E00E0798DF8E2
:1043A0000F00207A8DF810002089000A8DF8110086
:1043B0001AE020798DF80E0060798DF80F00A07951
:1043C0008DF81000E0798DF81100207A8DF8120038
:1043D0002089000A8DF81300A068000C8DF81400E5
:1043E000A068000E8DF81500781E81B20DF10D0049
:1043F000FFF745FE2080E27804F10C012046FFF72C
:104400002BFE21461298FFF716FE2178E27804F180
:104410000C00815420880212E078401C04F10C0149
:104420000A54B8F1000F0FD0E17804F10C000844F1
:1044300004F10C02CDE9002102903B4603AA04F5E9
:104440008B71286900F026FFE0783844801C0699BB
:10445000084407B0BDE8F08F2DE9FE4F05460E4633
:1044600017461C46DDE90D9ADDF83080204600F045
:10447000B9F983465B463A46314628468DE800073F
:10448000FFF73EFFBDE8FE8F2DE9F05F05460C46C5
:10449000164699460A9F4FF0000A00202070E078E7
:1044A000102827D2DFE800F0080927485C646C7404
:1044B0007C94A3B8C9F9FAF600BFFD2E0CD10220F6
:1044C000E0700020E870AE70207B20F001002073C7
:1044D000284600F0F7FF0DE0FE2E0BD10220E07021
:1044E0000020E870AE70207B40F001002073284669
:1044F00000F0E8FF3BE1207850B16078401C60702C
:104500002046FFF7D7F9002020700120E07012E06C
:10451000EE70002020713146284600F0D9FF207B44
:1045200000F0010028B10020287168710520E070BA
:1045300001E00320E0701AE12E71287920F00100DB
:1045400038B12046FFF7B6F9002020700120E07056
:104550000DE13146284600F0BBFF0420E07006E183
:104560006E713146284600F0B3FF0520E070FEE092
:10457000AE713146284600F0ABFF0620E070F6E051
:10458000EE713146284600F0A3FF0720E070EEE010
:104590002E723146284600F09BFF0820E070E6E0CE
:1045A000A86866F31F20A8603146284600F090FFF7
:1045B000207B00F0010040B1E878002802DD0B20EC
:1045C000E07004E00C20E07001E00920E070CEE033
:1045D000A868000A40EA0621A86861F31F20A860C5
:1045E0003146284600F074FF0A20E070BFE0A8685A
:1045F000000A40EA0641A86861F31F20A86031461E
:10460000284600F065FFE878002802DD0B20E07006
:1046100001E00C20E070AAE02179481C207105F12E
:104620000C0046543146284600F052FF2079E978C4
:10463000884201D10C20E07099E0A968080A00F0D6
:10464000DBF88046B8F1000F02D098F8040000E0D3
:10465000002083465946284600F03AFF2878B042A9
:1046600002D00E20E07001E00D20E07085F81461AA
:10467000B8F1000F0DD0207998F80510884208DABB
:1046800098F805202379D11A05F10C029818FBF748
:10469000B0FD6CE039E001E0FFE700BFE0780E28F4
:1046A00003D02888B6EB202F02D00220207001E032
:1046B0000120207040F215104655287900F00100C5
:1046C00048B10F20E0700D206073207802281BD0C5
:1046D0000020207018E0206970B12069006B30B1B3
:1046E000A868010A2069026B2046904720B920780B
:1046F000022801D0032020700120E07040F2231234
:1047000029464846FBF75CFD31E0607BC0F10D01B6
:1047100005F58B704654607B401E6073607B28BB40
:104720002A46D4E9040100F001FE8046B8F1000FEA
:104730000BD12069006B40B1A868010A2069026BA7
:104740002046904708B14FF00108B8F1000F02D0A1
:104750000120207001E0032020700120E07040F271
:10476000231229464846FBF72BFD00BF00BF00BFC0
:104770000AF1010A2078012808D1A87960712089FE
:1047800008B9002060812089401C2081E87889F8E0
:104790000300E078F870207938716079401C7871F6
:1047A00020893881A0787881207B38730020A07020
:1047B0002078022808D195F8141140F21510405DB8
:1047C00041EA0020A9F800002078BDE8F09F000031
:1047D000014640F223104843014A1044704700004C
:1047E00084010020014601EB4100024A02EBC000B7
:1047F000704700002401002030B501460022A423A8
:1048000016E0541C1C44600800EB4004114D55F8A0
:1048100024408C4201D9431E0AE000EB40040D4DB8
:1048200055F824408C4201D2024601E0024601E0E4
:104830009A42E6D300BF02EB4200064C54F8200037
:10484000884201D0002030BD02EB4200014C04EB55
:104850008000F8E7345C00082DE9F04F97B08046FF
:1048600014461D46DDF88CB0DDE9209ADDE92A67A3
:10487000CDE90345CDE90567CDF81C90CDF820A022
:1048800022980990CDF828B02798ADF82C002898E8
:10489000ADF82E0008220CA82499FFF70FFD08227E
:1048A0000EA82599FFF70AFD082210A82699FFF700
:1048B00005FD122212A82C99FFF700FDB2204E210F
:1048C0003C2303AACDE9001094214046FEF73AFFAD
:1048D00017B0BDE8F08F2DE9F0432DED0E8B93B0AE
:1048E00005460E461446B0EE408AF0EE608AB0EE01
:1048F000419AF0EE619AB0EE42AAF0EE62AAB0EEF2
:1049000043BAF0EE63BAB0EE44CAF0EE64CAF0EE19
:1049100045DAB0EE65EAB0EE46DADDE92989289F8E
:10492000CDE903788DED058ACDED068A8DED079AE8
:10493000CDED089A8DED09AACDED0AAA8DED0BBA41
:10494000CDED0CBA8DED0DCACDED0ECACDED0FDA61
:104950008DED10EA8DED11DAADF848903E2203A9F5
:1049600004F10C00FBF72CFC207A00F5D240A0608B
:104970005D203E210B463246CDE9001029462046F7
:10498000FFF7ACFC13B0BDEC0E8BBDE8F0832DE956
:10499000F04F8BB005460E4617461C46DDE916ABB8
:1049A000DDE91489CDF80C80CDF81090CDF814A075
:1049B000ADF818B01898ADF81A001998ADF81C00A9
:1049C0001B98ADF81E001C98ADF820001D98ADF89E
:1049D00022001E98ADF824001F98ADF826002098FC
:1049E000ADF828001A988DF82A001F2203A904F1B7
:1049F0000C00FBF7E5FB207A00F58070A0607C20BE
:104A00001F2100913B463246CDE901102946204640
:104A1000FFF722FD0BB0BDE8F08F2DE9F04705460A
:104A20000C46E678A078FE281AD14FF00009052739
:104A3000A07828706E70A079A870E079E870207A6C
:104A400028712089000A6871E27804F10C01A81D20
:104A5000FBF7B6FBE819401CE17800EB01082FE0FA
:104A6000314604F10C00FEF729FF06460927A0781D
:104A700028706E702079A8706079E870A07928712C
:104A8000E0796871207AA8712089000AE871A0682D
:104A9000000C2872A068000E6872324604F10C0106
:104AA00005F10A00FBF78CFBE819401C00EB060837
:104AB000207900F0010008B10D2000E000208146BF
:104AC000207888F800002088001288F80100B9F1E9
:104AD000000F06DD4A4604F58B7108F10200FBF772
:104AE0006FFBF81C30444844BDE8F08710B504461D
:104AF000054B064A2146002000F00AF810B1034891
:104B000000F0EEFC10BD000034070020100600206D
:104B10002DE9F84F80460C4616461D4600BF40461C
:104B2000FFF760FE81464046FFF752FE824633465D
:104B3000224649460095FFF7A7FC0746022F01D001
:104B4000032F1ED14046FFF743FE82464046FFF743
:104B500049FE81464846FEF7ADFE002089F8000078
:104B6000012089F80300FD2C08D1022089F80300F8
:104B700000208AF80300504600F0A4FC0020BDE8A5
:104B8000F88F3846FBE7000030B52DED028BD7B02B
:104B9000B0EE408A9FED280A28EE000ABCEEC00A5B
:104BA00010EE100A84B2B4F5803F01DB4FF6FF74BB
:104BB0000025B3EE080AB4EEC08AF1EE10FA01DB6C
:104BC000642519E0B3EE040AB4EEC08AF1EE10FADF
:104BD00001D8002510E0B3EE040A38EE400ADFEDFC
:104BE000170A20EE200AF1EE000A80EE201ABCEE31
:104BF000C10A10EE100AC5B2002009900A900B906D
:104C0000014602460C9068B20023CDE905300193BD
:104C10000293CDE903340093CDE90721084A517886
:104C200010780EAB0022FFF7B2FE0EA800F0E6F8F7
:104C300057B0BDEC028B30BD00007A440000C84282
:104C4000280000202DE9F04FD1B0194805784678AA
:104C5000002008AC07468046814682464FF0040B90
:104C60000790CDF810A08DF814708DF815808DF890
:104C700016908DF817B003208DF81800092204A9AA
:104C800004F10C00FBF79CFA207AA0603220092185
:104C90000091CDE90110324629462046079BFFF7D7
:104CA000DBFB08A800F0AAF851B0BDE8F08F0000C7
:104CB000280000202DE9F0432DED0C8BD3B00446E5
:104CC00094ED060ADFED300A20EE200AB0EE408AAD
:104CD00094ED070ADFED2C0A20EE200AF0EE408A60
:104CE00094ED080ADFED280A20EE200AB0EE409A83
:104CF000FFF7DCF9064694ED030AF0EE409A94EDD6
:104D0000040AB0EE40AA94ED050AF0EE40AA1F484E
:104D1000077890F801800AADB146B0EE48BAB0EE1F
:104D200068CAF0EE49CAB0EE69DAF0EE4ADAF0EE9F
:104D30006ABACDF80C908DED04BA8DED05CACDEDB3
:104D400006CA8DED07DACDED08DACDED09BA1C22E1
:104D500003A905F10C00FBF733FA287A00F5F050AF
:104D6000A86027201C210B464246CDE90010394699
:104D70002846FFF7B3FA0AA800F040F853B0BDEC9C
:104D80000C8BBDE8F083000035FA8E3C2800002033
:104D900030B58DB0FFF78AF9044614480068201A30
:104DA000B0F57A7F05D311480460FFF74BFFFCF79D
:104DB00015FC0F480078B0B16846FDF7FFFD0D48BF
:104DC00000684FF47A71B0FBF1F50B480068201AC7
:104DD000A84207D308480460684600F01FF86846F8
:104DE000FFF768FF00BF0DB030BD0000400000209D
:104DF000340000202C0000203800002030B5C7B05F
:104E00000446214601A8FFF708FE05462A4601A9E7
:104E1000002000F07FF847B030BD000070B52DEDE8
:104E20000A8BCCB00446FFF741F94FF47A71A0FB2E
:104E30000150064694ED000ADFED320A20EE200A0A
:104E4000B0EE408A94ED010ADFED2E0A20EE200A32
:104E5000F0EE408A94ED020ADFED2A0A20EE200AE5
:104E6000B0EE409A94ED030AF0EE409A94ED040AF5
:104E7000B0EE40AA94ED050AF0EE40AA94ED090ABE
:104E8000DFED210A80EE201AB0EE41BA94ED0A0A55
:104E9000DFED1D0A80EE201AF0EE41BA94ED0B0A08
:104EA000DFED190A80EE201AB0EE41CA41F6FF701C
:104EB000164ACDE900560290517810789FED146A99
:104EC000DFED135A9FED125ADFED114AB0EE4C4A56
:104ED000F0EE6B3AB0EE4B3AF0EE6A2AB0EE4A2AA8
:104EE000F0EE691AB0EE491AF0EE680AB0EE480A20
:104EF00003AAFFF7F0FC03A8FFF780FF4CB0BDEC5E
:104F00000A8B70BD0AE81C410000C842280000203E
:104F10000000000070B506460C461546A9B22046B2
:104F2000FDF706FB70BD00002DE9F34FC1B08268AC
:104F3000C4680569D0F814C08369C669076AD0F8E7
:104F40002480CDF80081002106E0DDF8088158F8C2
:104F500021804DF82180491C1029F6DB10214DE0FD
:104F6000A1F102085DF828804FEA5849A1F1020832
:104F70005DF8288049EAC838A1F102095DF8299056
:104F80004FEAD94AA1F102095DF829904AEA493964
:104F900088EA0908A1F102095DF8299088EA9929AF
:104FA000A1F107085DF82880C844A1F10F095DF858
:104FB00029904FEAD91AA1F10F091DF829904AEA60
:104FC0004969A1F10F0A5DF82AA04FEA9A4BA1F1B5
:104FD0000F0A5DF82AA04BEA8A3A89EA0A09A1F188
:104FE0000F0A5DF82AA089EADA09C144A1F1100884
:104FF0005DF82880C8444DF82180491C4029AFDB6A
:10500000002149E04FEA931A4AEA836A4FEAD32B18
:105010004BEA435B8AEA0B0A4FEA536B4BEAC31B2A
:105020008AEA0B0ADDF800B1D34403EA060A27EA4C
:10503000030E8AEA0E0ADA44DFF8C8B05BF821B042
:10504000DA445DF821B00AEB0B084FEA920A4AEA0B
:10505000827B4FEA523A4AEAC24A8BEA0A0B4FEA8B
:10506000925A4AEA822A8BEA0A0B02EA040A02EA04
:10507000050E8AEA0E0A04EA050E8AEA0E0A0BEB0E
:105080000A09409737461E460CEB0803AC462546F6
:10509000144608EB0902491C4029B3DBD0F808800C
:1050A0009044C0F80880D0F80C8008EB0409C0F8E0
:1050B0000C90D0F8108008EB0509C0F81090D0F8DB
:1050C000148008EB0C09C0F81490D0F8188008EB95
:1050D0000309C0F81890D0F81C8008EB0609C0F846
:1050E0001C90D0F8208008EB0709C0F82090D0F879
:1050F0002490DDF80081C144C0F8249043B0BDE89D
:10510000F08F0000345B00082DE9F04192B00446B6
:105110000E462088C0F3C508C8F1770000F03F00B4
:10512000451C04F1080780208DF8000047210DF18F
:105130000100FBF75EF82178E81D0DF800102088CB
:10514000C0F30721A81D0DF800102068C0F3074127
:10515000681D0DF800102068000E291D0DF80100D3
:105160002179E81C0DF80010A088C0F30721A81CC5
:105170000DF800106068C0F30741681C0DF80010BE
:105180006068000E0DF8050005F10802694620462A
:1051900000F034F8F8783070B87870707878B070C3
:1051A0003878F070F8793071B879707112B0BDE864
:1051B000F081000000210160416008498160084AD7
:1051C000C260084A0261084A4261084A8261084A8C
:1051D000C261084A0262084A4262704767E6096A89
:1051E00085AE67BB72F36E3C3AF54FA57F520E5108
:1051F0008C68059BABD9831F19CDE05B2DE9F04F7F
:1052000091B0044689461546CA46D4F800B02068D5
:1052100000EBC50020602068584502D26068401C41
:105220006060CBF3C50630E0C6F14007BD4200D256
:105230002F4604F1280188193A465146FAF7C0FF73
:105240003E44BA44ED1B402E1ED104F128000090CC
:105250004FF000080FE0009A02EB880001AA02EB71
:105260008801C2780A7082784A7042788A7002781F
:10527000CA7008F10108B8F1100FECDB01A9204653
:10528000FFF752FE002600BF00BF002DCCD111B0A9
:10529000BDE8F08F2DE9F0479CB004460D46164658
:1052A0001F46DDE9259ADDF890801CB1207800F0DA
:1052B000010018B900201CB0BDE8F08760782870A4
:1052C000D4E90201CDE900010098C5F80100BDF85C
:1052D0000400A5F80500D4E90220521C40F10000AA
:1052E000C4E9022002A8FFF765FF202204F11001A3
:1052F00002A8FFF783FF3A46314602A8FFF77EFF78
:105300004A46414602A8FFF779FF0222514602A809
:10531000FFF774FF0722294602A8FFF76FFFE91D78
:1053200002A8FFF7F1FE0D20C5E700002DE9F04FC0
:10533000A1B007460C4616461FB9012021B0BDE8B2
:10534000F08F06F1020B06F58B7808F1070020902C
:1053500006A8FFF72FFF202207F1100106A8FFF78C
:105360004DFFF07800F10A02594606A8FFF746FF04
:10537000022206F58A7106A8FFF740FF0722414680
:1053800006A8FFF73BFF04A906A8FFF7BDFE06220B
:1053900004A82099FAF738FF08B10020CEE7387842
:1053A000012121EA500998F800A0002102910391FF
:1053B000D8F801000290B8F80500ADF80C000CB95F
:1053C0000020BBE7002518E0F17905EBC502A01C21
:1053D0001044407881420ED1317A05EBC502A01C01
:1053E00010448078814206D105EBC501A01C405CC9
:1053F000504500D104E0681C85B22088A842E3DC57
:1054000000BF2088A84229D12088102801DB002075
:1054100094E7B9F1000F0CD0294BDDE90220D11837
:1054200040F10000D7E90223891A984101D20020F7
:1054300084E7F17905EBC502A01C10444170317A74
:1054400005EBC502A01C1044817005EBC501A01C32
:1054500000F801A02088401C208019E00020009066
:10546000019005EBC501A01C084450F8031F0091F2
:105470008088ADF80400B9F1000F08D0DDE90231F1
:10548000DDE90020D21A884101D3002056E700BF91
:1054900005EBC501A01C0844D8F8011040F8031F13
:1054A000B8F805108180D7E90220DDE90231D21A6F
:1054B000884103D2DDE90201C7E9020101203DE78D
:1054C000808D5B0000BF4FF6FF71018000BF704709
:1054D00070B504460D4621462846FEF7ACFD70BD6A
:1054E0002DE9F04F2DED028B9DB00446A068000A17
:1054F000462851D003DC38B142287DD1FCE04C284D
:105500007BD08B28F9D100E056E2254612AEE87830
:105510002B2801DAE87800E02B2007462B213046C3
:10552000FAF767FE3A4605F10C013046FAF748FEF5
:1055300000BF9DF87100FE490978884203D09DF8AC
:10554000710000B138E2002523E014A800EB8500CB
:1055500090ED000AB0EE408AB5EEC08AF1EE10FA86
:1055600003D29FEDF40AB0EE408A9FEDF30A28EED5
:10557000000ABCEEC00A10EE100A86B2B6F5805FD3
:1055800001DB40F6FF763146284600F09FFA681CA2
:10559000C5B2042DD9DB0FE2254613AFE8782628E3
:1055A00001DAE87800E02620804626213846FAF71E
:1055B00020FE424605F10C013846FAF701FE00BF15
:1055C0009DF85C00DA490978884203D09DF85C00B8
:1055D00000B1F1E10026BDF84C004FF6FF718842A2
:1055E0001CD0BDF84C00B0F5617F17DDBDF84C0054
:1055F000A0F57A70000301E0DDE1A4E04FF47A71D8
:1056000090FBF1F085B2B5F5805F01DB40F6FF75E8
:105610002946002000F05AFA012600BFBDF84E00CE
:105620004FF6FF71884219D0BDF84E00B0F5617F8A
:1056300014DDBDF84E00A0F57A7000034FF47A71C6
:1056400090FBF1F085B2B5F5805F01DB40F6FF75A8
:105650002946012000F03AFA012600BFBDF85000AB
:105660004FF6FF71884219D0BDF85000B0F5617F48
:1056700014DDBDF85000A0F57A7000034FF47A7184
:1056800090FBF1F085B2B5F5805F01DB40F6FF7568
:105690002946022000F01AFA012600BFBDF8520088
:1056A0004FF6FF71884219D0BDF85200B0F5617F06
:1056B00014DDBDF85200A0F57A7000034FF47A7142
:1056C00090FBF1F085B2B5F5805F01DB40F6FF7528
:1056D0002946032000F0FAF9012600BF5EB1BDF8AB
:1056E00052000090BDF85030BDF84E20BDF84C106F
:1056F00092A0FCF7C3F95FE125461BAEE8780628C7
:1057000001DAE87800E00620074600203060B0802B
:105710003A4605F10C013046FAF752FD00BF9DF8FC
:105720006E0083490978884202D09DF86E0048B91E
:105730009DF87100012802D18649087002E000201E
:105740008449087038E1254614AEE878212801DA4A
:10575000E87800E02120074621213046FAF749FD8C
:105760003A4605F10C013046FAF72AFD00BF9DF8D4
:105770006E006F490978884203D09DF86E000028BA
:1057800074D1BDF86C00B72808D0A0F2FF10002833
:105790006DD001286ED009286BD1B3E09DED140ABD
:1057A000BCEEC00A10EE100AC5B29DED150ABCEEA3
:1057B000C00A10EE100A86B2FF27012D04DB042D6B
:1057C00002DC681EC7B206E0092D04DB0C2D02DCEA
:1057D000A5F10900C7B2042F33DAB6F5805F01DB0B
:1057E00040F6FF763146384600F070F9C6F30329DB
:1057F000C6F3031A06F00F0B09EB0A00584400F039
:105800000F001390139840EA061080B212903B46A6
:105810003246294650A0FCF731F94FF00F0809E055
:10582000129840FA08F000F0010154A0FCF726F9A4
:10583000A8F10108B8F1000FF2DA45A0FCF71EF953
:1058400013E0FF2D11D14FF0000807E0314640462C
:1058500000F03CF908F1010000F0FF08B8F1040F76
:10586000F4DB314646A0FCF709F9A2E0A2E01EE015
:1058700000E09DE09DED140ABCEEC00A10EE100A97
:1058800085B207A8FDF79AF81A2D09D01E2D02D06F
:10589000692D09D103E007A8FFF70CFA05E000BF66
:1058A00007A8FFF7BBFA00E000BF00BF81E09DED55
:1058B000140ABCEEC00A10EE102A91B29DED150A32
:1058C000BDEEC00A10EE100A002815DD1A290BD013
:1058D0001E2902D069290DD105E02E4A106001224F
:1058E0001C4B1A7007E000BF2B4A10600122194BB5
:1058F0001A7000E000BF04E0421C12B90022154BF0
:105900001A7056E000201290139014210DA8FAF797
:1059100070FC0DA800210A9112AA12ABCDE90B1060
:10592000CDE9062112A808910191029136E000000C
:10593000280000200000000000F07F455B52435D1E
:105940002052433A202564202564202564202564C4
:105950000D0A0000340000205B5243565D2063684E
:105960003D2564207468726F74746C653D256420F5
:105970006D6F746F723D25640D0A00002564000090
:105980005B5243565D20616C6C2073796E633D25DC
:10599000640D0A002C00002030000020CDE9040333
:1059A00003910020024603460090FEF755FF00E0F9
:1059B00000BF00BF00E000BF00BF1DB0BDEC028B08
:1059C000BDE8F08F10B5FEF77FFB4FF4A060FBF74A
:1059D0005BFF124800684FF47A71B0FBF1F4601E6F
:1059E000B0F1807F01D301200FE0601E4FF0E02175
:1059F00048610F214FF0FF30FBF750FF00204FF0C0
:105A0000E021886107200861002008B100BFFEE79F
:105A10000121881EFBF742FF10BD0000000000209E
:105A200010B500BF0120FDF7C5FD00BF0A49098878
:105A30000A4A1288891A01F12000C11700EBD161CE
:105A40004911A0EB41110CB200BF0020FDF7B2FDDF
:105A500000BFE0B210BD000024000020260000209E
:105A600070B505460E4600BF0120FDF7A3FD00BF3F
:105A70001348008813490988884201D1002418E09E
:105A800011481049098810F8210028700E480D4966
:105A9000098800EB8100408830800A490988481C49
:105AA000C11700EBD1614911A0EB4111054A1180EA
:105AB000012400BF0020FDF77DFD00BF204670BD22
:105AC0002400002026000020A40000202DE9F04141
:105AD00006460F4600BF0120FDF76CFD00BF1249CE
